:020000023000CC
:1010000000000420751303005D1303005F13030049
:101010006113030063130300651303000000000065
:101020000000000000000000000000006713030043
:1010300069130300000000006B1303006D1303002D
:10104000D53E03006F130300714303006F130300C9
:101050006F1303006F130300F54103006F130300C8
:101060006F1303004D4903006F1303006F13030058
:101070006F1303006F1303006F1303006F1303005C
:101080006F130300752703006F1303006F13030032
:101090006F1303006F130300555603006F13030013
:1010A0006F1303006F1303006F1303006F1303002C
:1010B0006F1303006F130300000000000000000026
:1010C0006F1303006F1303006F1303006F1303000C
:1010D000D14403006F1303006F1303006F13030069
:1010E0006F1303006F1303006F1303000000000071
:1010F000000000006F130300000000006F130300E6
:1011000000000000000000000000000000000000DF
:1011100000000000000000000000000000000000CF
:1011200000000000000000000000000000000000BF
:1011300000000000000000000000000000000000AF
:10114000000000000000000000000000000000009F
:10115000000000000000000000000000000000008F
:10116000000000000000000000000000000000007F
:10117000000000000000000000000000000000006F
:10118000000000000000000000000000000000005F
:10119000000000000000000000000000000000004F
:1011A000000000000000000000000000000000003F
:1011B000000000000000000000000000000000002F
:1011C000000000000000000000000000000000001F
:1011D000000000000000000000000000000000000F
:1011E00000000000000000000000000000000000FF
:1011F00000000000000000000000000000000000EF
:10120000354936480A1A02D0072291438D4634499F
:1012100034480A1A06D00722914381F30988022232
:1012200082F3148830483149314A00F044F831489B
:101230003149324A00F03FF831483249324A00F031
:101240003AF832483249334A00F035F832483349E7
:10125000334A00F030F833483349344A00F02BF871
:1012600033483449344A00F026F8344834490022DF
:1012700000F02CF833483449002200F027F83348B6
:101280003349091A082902DB002202604160314A11
:1012900090471F481F49884205D00268043003B4B4
:1012A000904703BCF7E700208646EC46002000216B
:1012B000294A9047FEE7884207D0521A05D00378A2
:1012C00001300B700131013AF9D17047884202D0E8
:1012D00002700130FAE770470000042000E00320AC
:1012E00000000420000004207461030098270020FF
:1012F000CC270020D0130300D0130300C2590300F1
:10130000746103009827002098270020FC5A0300EE
:10131000FC5A0300FC5A0300FC5A0300FC5A030069
:10132000FC5A0300FC5A0300FC5A030072610300DC
:10133000A8610300CC270020CC270020CC27002068
:10134000A5380020A8380020A8380020A8380020A0
:10135000A85800209D130300B9500300FEE7FEE7E4
:10136000FEE7FEE7FEE7FEE7FEE7FEE7FEE7FEE755
:1013700000F002B8FFF7FCBF0F484FF007018843A9
:1013800085460E4880470E48016841F470010160AF
:10139000BFF34F8FBFF36F8FFFF732BF09480A4982
:1013A0000A4A884207D0521A05D0037801300B70E0
:1013B0000131013AF9D1704700000420395303008C
:1013C00088ED00E0FC5A03009827002098270020B1
:1013D0007047000007B5044B0093044A402300F017
:1013E00032F803B05DF804FBF1130300CD270020B1
:1013F0002DE9F84388461446B2B10F4B0F4E032532
:10140000002743F00109224608EB0701002003F002
:1014100045FF0744241A48B933782BB14FF47A407A
:10142000C847013D02D13570BDE8F8830123337010
:10143000002CE8D1F8E700BF005B0300CC270020B8
:10144000704703F05BBFF0B595B01D4616460846E1
:101450000C4601F015FD1A9B0D93CDE9086500259A
:101460002B46082205A920460A958DF82C500C958C
:1014700001F022FD079B0293069B03939DF8143015
:101480008DF8115003F00302012A1DD1BDF814207C
:10149000059DC3F3C203C2F383168DF81030B2006A
:1014A00008230EA9204601F007FDC5F3952508ABDA
:1014B0000093324602AB0EA9284600F025FB2046D9
:1014C00001F0E2FC15B0F0BD022AF8D1BDF81650CB
:1014D000C3F3C203C5F389158DF810300827082D12
:1014E0002E4628BF08263B4632460EA9204601F06C
:1014F000E3FCAD1B08AB02AA31460EA8374400F04E
:1015000067FB002DEBD1DAE708B5FFF79AFF044837
:10151000042100F063FA034B01225A7108BD00BF99
:10152000B45A030098270020037813F0040216D061
:1015300003F00303012B03D0022B09D001207047D5
:101540000A6800880232C0F3831002440A60F5E79B
:101550000B684288023303EB92130B60EEE71046F0
:10156000704700002DE9F04FDFF81CA187B00F464F
:1015700000230446861C0DF1070015468DF8073040
:1015800000F08AFFDAF804203A60DAF8083003F550
:1015900080739B1A0AF21C470AF583690AF2144801
:1015A000B3421AD30020002D69D004F00F039B0131
:1015B00043F0050363F30F00DAF80430DAB20332C4
:1015C00033444AF822009DF80700CAF8043000F0BE
:1015D00087FF012007B0BDE8F08F0121384601F0F8
:1015E0007EF9484601F093F9404601F090F9DAF8A7
:1015F00008000290C0B203300AEB800002A9FFF796
:1016000093FF029B30BBDAB20AEB8202D1680391EE
:101610009A1C0133DBB20AEB83030292D3F80CB0BD
:1016200001F00303012B22D0022B15D08346404644
:1016300001F070F910B1029BCAF8083059463846DB
:1016400001F04DF9DAF80830DAF8042003F5807378
:101650009B1AA5E7D8B2CEE7BDF80E30C3F38913C5
:1016600003334FEA1B4B02EB93030293DFE7BDF812
:101670000C30C3F383134FEA1B4B1344F5E7A40567
:1016800044F0060098E700BFE0280020064B07481A
:1016900010B500221A7001F0ACFB044610B90448E2
:1016A00001F0AEFC204610BDE0280020D45A030013
:1016B0003C5B030030B50A4C71B10A4A0A49121B5F
:1016C000D20800239A4201D1002030BD31F82350C6
:1016D000854202D00133F5E7034654F83300F4E7BE
:1016E000E4590300A45A030098270020094B01394C
:1016F00003EBC000032909D8DFE801F00A02040661
:101700000420704700797047407970470020704787
:1017100002207047E4590300034BD3E90130C31A98
:1017200058425841704700BFE02800202DE9F041A1
:1017300086B0FFF7F1FF0546002840F0ED80774CBA
:10174000C4F81804BFF34F8FA3680293DBB20333CE
:1017500004EB830002A9FFF7E7FE029B18B1D4F85F
:101760001824002A5AD0DAB2991C013304EB820201
:10177000DBB204EB8303D268DB68049302F003035B
:10178000022B0392029154D1BDF80E306448C3F38A
:101790008917502F3E4628BF502606F1080166F3F0
:1017A0008F13C1F30901ADF80E3001F03AFB054685
:1017B000002800F09C8001F063FB0023082203A9AD
:1017C000284601F06FFB0299CB43DBB20133C9B26B
:1017D0000331B6EB830F4FEA830204EB810125D975
:1017E0005FFA82F80823A6EB0806284601F05AFBA8
:1017F000F6B208F108034B4903F0FC0332462846D1
:1018000001F050FB029B033703EB97070297D4F8D4
:101810001834002B43D1D4F8106453E062689A4224
:1018200094D8A260284606B0BDE8F081082332466D
:10183000E5E7012B5BD1BDF80C303948C3F38311C8
:10184000062928BF062161F38913023101F00F0137
:101850008900ADF80C3001F0E4FA0546002846D0C6
:1018600001F00EFB0023082203A9284601F01AFB11
:101870000026BDF80C20C2F38312B300964203F198
:101880000803C4D202994A1CC9B20331029204EB84
:1018900081010422284601F005FB0136E9E72846CC
:1018A00001F0F2FAFFF738FF80F00100C5B2B9E7A6
:1018B000F3685B7923B1336829461B683046984743
:1018C000F3681E68002EF3D1284601F0DDFA0DF111
:1018D00007008DF8076000F0DFFDD4F818340BB96D
:1018E000029BA3609DF8070000F0FAFDDAE7D4F848
:1018F000104454B90C4B0D480D49C01AC0080004DF
:1019000040F0020000F05CF8CCE7236820469B68BA
:101910009847E3681C68ECE7002583E7E02800208F
:10192000D45A0300EC280020E45903004C5A030069
:10193000245B03002DE9F34704460E46924601A9B5
:10194000012218469946FFF70DFE1B4F10B3019D6B
:101950004FF00008AA1CC84508EB020123D1174824
:10196000002100F099FF80F31000000440EA1440C9
:10197000E4006B1C04F03804DBB2EDB244F0010467
:1019800007EB8303033544EA881444EA8624D860CD
:1019900047F825403B781BB1FFF7C8FE0028FBD174
:1019A00002B0BDE8F087C9B207EB81015AF82830D0
:1019B000CB6008F10108CEE7E0280020FC2C0020D5
:1019C00000231A46FFF7B6BF07B50123019201AA0B
:1019D000FFF7B0FF03B05DF804FB000030B50F4C1B
:1019E000D4F8102403460020114631B9D968087193
:1019F0004AB9C4F810340A6030BDC9680D7985420F
:101A000006D00968F1E7D26814680C601360F3E748
:101A100001300A28E8D14FF0FF30EDE7E028002040
:101A200038B5084B0125D3F810441D7004B938BDF2
:101A3000E3685D71236820465B689847E3681C682B
:101A4000F4E700BFE028002030B5C38885B0044625
:101A50000D4633B1144A00921449154A284600F045
:101A6000BCFF217A05291DD0637A4BB1A088FFF70E
:101A70003DFE104B104953F82020284600F0ADFFE2
:101A8000227A0E4BA08853F8222003920021FFF700
:101A900011FE039A0A490346284605B0BDE83040C6
:101AA00000F09BBF05B030BD685B0300505B0300D6
:101AB000485B0300D45B03006D5B0300F85B03002D
:101AC000705B030007B503460846197A052911D053
:101AD0005B7A2BB1094A0A49019000F07EFF019818
:101AE0000849019000F079FF019803B05DF804EB1C
:101AF00000F068BF002AF8D0F2E700BF685B03007F
:101B00006D5B0300655B03002DE9F04385B01F4664
:101B10000C9D002395F80C902B7306460C469046BE
:101B200029463846FFF790FFB8F1060F09D8DFE8DD
:101B300008F00412181F283340003146284600F0F0
:101B40004CFF002229463846FFF7BCFF85F80C9071
:101B500005B0BDE8F08322683146284600F03DFF1D
:101B6000EFE7D4E900233146284600F036FFE8E7E6
:101B7000A36800933146D4E90023284600F02DFFE6
:101B8000DFE7E3680193A36800933146D4E90023BB
:101B9000284600F022FFD4E723690293E36801930B
:101BA000A36800933146D4E90023284600F015FFCE
:101BB000C7E76369039323690293E3680193A3680A
:101BC00000933146D4E90023284600F006FFB8E729
:101BD00008292DE9F74F80460E4617461C463DD88A
:101BE00000251B7B2573214610460193FFF72CFF30
:101BF000DFF88CA0DFF88CB0AE4232D918F805209F
:101C00005946204600F0E9FE0135082DF4D11B4964
:101C1000DFF874A0DFF874B0204600F0DEFE4FF06D
:101C200000094E4524D918F809507E2D1ED82846A3
:101C300003F014FE002814BF2A462E2259462046DF
:101C400000F0CBFE09F10109B9F1080FE9D1012239
:101C500021463846FFF736FF019B237303B0BDE8EA
:101C6000F08F5146204600F0B8FECDE72E22E5E782
:101C70005146204600F0B1FEE4E700BF845B03005C
:101C8000805B03007A5B0300825B0300865B0300DA
:101C9000074B1B5C1F2B8ABF064A4FF0A04203F084
:101CA0001F03D2F80405D840C04300F0010070477C
:101CB0000C5C030000030050074B1B5C1F2B86BF0E
:101CC000064903F01F034FF0A041012202FA03F37B
:101CD000C1F80C35704700BF0C5C030000030050D6
:101CE000074B1B5C1F2B86BF064903F01F034FF0F9
:101CF000A041012202FA03F3C1F80835704700BF82
:101D00000C5C03000003005008B50020FFF7E8FF5B
:101D10000120FFF7E5FF0220FFF7E2FFBDE80840E2
:101D20000320FFF7DDBF08B50020FFF7C5FF012046
:101D3000FFF7C2FF0220FFF7BFFFBDE80840032006
:101D4000FFF7BABF0A4B185C1F288ABF094B4FF038
:101D5000A04300F01F00D3F804250121814021EAAF
:101D600002000A40C3F80805C3F80C25704700BFFD
:101D70000C5C0300000300500B2809D00C2809D08C
:101D8000182809D019280CBF03204FF0FF307047E6
:101D9000002070470120704702207047C20710B52D
:101DA00004460CD54FF0A0430322C3F83427C3F8F0
:101DB0003827C3F83C27C3F84027FFF7A5FFA30740
:101DC0000AD54FF0A0430C22C3F82C27C3F83027C4
:101DD000C3F86027C3F8642710BD0000C30710B51F
:101DE00007D4F023054A4008145C234019431154DA
:101DF00010BD0901C9B20F23F4E700BFC82D0020B0
:101E000030B5094B1C78094B196800239C4202DC51
:101E10000022104630BD11F83350854201EBC30259
:101E2000F7D00133F2E700BF982D0020E82D002005
:101E300013B504460191FFF7E3FF38B143682BB1B6
:101E40000199204602B0BDE81040184702B010BD0D
:101E5000034B044819680022490800F02CBA00BF5F
:101E60009C2D0020A02D002010B5C0B2FFF7C8FFA8
:101E70000446007802F0B0F963785A1E5342534189
:101E8000834208D1044BD3E90023134303D1BDE8B7
:101E90001040FFF7DDBF10BDC02D002037B543084F
:101EA000374AD35CC2074CBF1B0903F00F0304463B
:101EB0000D46042B25D8DFE803F003262F3C400015
:101EC000F9B10121FFF78AFF00230DF107008DF81A
:101ED000073000F0E1FA0120A4F12003C4F1200151
:101EE000284A20FA01F100FA03F30B43A040D2E99B
:101EF000004120430B43C2E900039DF8070000F0B6
:101F0000EFFA03B030BD002918BF0221204603B00C
:101F1000BDE83040FFF762BF49B10321FFF75EFF24
:101F20000121204603B0BDE83040FFF781BF012109
:101F3000ECE70029E5D10421E8E709B10321E5E751
:101F4000FFF74CFF29462046FFF772FF0DF107000F
:101F50008DF8075000F0A0FA0120A4F12003C4F18D
:101F60002001084A20FA01F100FA03F30B43A040D4
:101F7000D2E9004124EA000021EA0303BBE700BFE5
:101F8000C82D0020C02D00202DE9F041124E134F26
:101F900000243378A34208DC114BD3E90023134318
:101FA00018D0BDE8F041FFF753BF3D6805EBC4080A
:101FB00015F8340002F010F998F801305A1E534217
:101FC0005341181A4142414115F83400FFF766FFAA
:101FD0000134DEE7BDE8F081982D0020E82D0020D7
:101FE000C02D0020092AF7B505460C4616463ED9F5
:101FF00002F01AF8E8B11F4B1F481D601F4B204F1D
:102000001C70204B002120221E6003F055FC1E4B4B
:1020100000200021C3E90001013CE4B20326FF2CAB
:102020000DD11A4A1A48002103B0BDE8F04000F073
:1020300037B901F0B5FF0028DDD003B0F0BD9DF841
:10204000063015F834008DF8046005EBC40223F067
:1020500007038DF8063001A993788DF805303A46CC
:1020600001F0ECFF013CE4B20028D8D0E5E70720FE
:10207000E3E700BFE82D0020C82D0020982D0020A8
:10208000691E03009C2D0020C02D0020891F030025
:102090001C5C030070B5084D084E00242B789C4250
:1020A00001D3002070BD3368012113F8340002F021
:1020B00045F80134F2E700BF982D0020E82D0020FC
:1020C0001FB50021039001AA44F20100CDE90111DE
:1020D00000F004F805B05DF804FB000038B572B6F6
:1020E000FFF79EFCFFF722FB0028FBD1104B114CA1
:1020F000114D1249E41AE408240444F00100FFF7EA
:102100005FFCD5F8F030DB0700D500BE0C4944F089
:102110000200FFF755FCBFF34F8FEA68094B02F44A
:10212000E0621343EB60BFF34F8F00BFFDE700BFDA
:10213000E45903004C5A030000ED00E0205C03006A
:102140002C5C03000400FA0510B5D0E90243D1E984
:102150000202A04272EB03032CBF0120002010BD3D
:1021600008B50A4800F0EFFA094AD2E90031C01870
:10217000084BD3E9002341F10001904271EB0303C6
:1021800003D210F1807041F1000108BDA0270020AA
:10219000F02D0020682E002037B505460C460A4871
:1021A00001A900F004FB60B10570446001A9064874
:1021B00000F027FB18B1054800F0CAFA002003B070
:1021C00030BD0420FBE700BF542E0020A0270020D4
:1021D00038B5184B1B78044613B90025284638BD7E
:1021E0000028FAD0037F03F0FF05002BF5D0FFF79E
:1021F000B7FFD4E90223904271EB030314D32369A0
:1022000003B92377D4E90530984721690029E4D040
:10221000237F03F0FF05002BDFD0D4E902325B18E7
:1022200042F10002C4E902320348214600F007FFF0
:10223000D4E700BFF82D0020485C030013B5114B14
:1022400011491868019008231048582200F09CFAA0
:10225000044698B90E4A0F4801A900F065F90446F2
:1022600060B90C48012100F051FA01230A4A0948DB
:10227000194600F0B3F9094B01221A70204602B04A
:1022800010BD00BF445C0300FC2D0020542E002034
:1022900009230300A0270020FFFF7F00F82D002066
:1022A0003AB103685A614A1E5142514119610020F6
:1022B00070470720704738B5037F04460D4683B941
:1022C0008261FFF74DFF2369281841F10001C4E93D
:1022D000020103B1256121460020BDE83840FFF727
:1022E0005BBF002038BD0023014603770120FFF7C4
:1022F00053BF401A20F07F4070470000014800F0B3
:1023000022BA00BFA02700202DE9F347064600F0BF
:1023100005FA40B1584AD2E9003113F1807341F116
:102320000001C2E900310021304600F006FA38B160
:10233000524C236823B12068FFF74AFF0023236033
:102340000121304600F0F9F920B1FFF709FF4C4BAD
:10235000C3E900014B48494D4B4C4C4F01A900F0DB
:1023600060FA002842D1DFF82081444CDFF8249144
:10237000404600F07AFE2368002872D07BB12368C3
:10238000D0E90252D3E902138D4272EB03032AD241
:1023900023681B7F1BB12168404600F050FE404679
:1023A00000F05DFED0E9027A0546FFF7D9FE381A43
:1023B0006AEB010A01287AF1000345DBB0F5350F1D
:1023C00040D3FFF79BFF324A02444FF496030021AB
:1023D000484600F023F900283ED1236813B930465F
:1023E00000F0F4F8256002B0BDE8F0870378012B17
:1023F0001DD0022B09D14FF00008204600F02FFE1F
:10240000002836D080F81C80F7E73BB941680B7F85
:1024100023B901230B77204600F011FE01A91948CA
:1024200000F02AFA01A9174800F0FBF999E7416882
:102430002B68994202D100232B60EFE7204600F081
:1024400017FEEBE7AA68C0E70021484600F06BF9E9
:102450002846FFF7BDFE01E00D28F9D000232360D8
:1024600086E7002BBFD1304602B0BDE8F04700F050
:10247000B1B801233B70D1E7F02D0020702E002071
:10248000682E0020542E0020485C0300F82D002008
:10249000FFFFB400A027002070B5EFF3108672B6DE
:1024A0000C4A946801239CB993600B4B0B4DD3F8F5
:1024B000801029401160C3F88050D3F88410516017
:1024C0004FF0FF32C3F88420047006B962B670BDC5
:1024D0000370FAE7742E002000E100E0FC06FFBD67
:1024E000084B9A6810B55AB150B9EFF3108172B623
:1024F000054A1C6814605C685460986001B962B653
:1025000010BD00BF742E002000E100E0435882B0EF
:102510003BB10023435043580193019B012002B07B
:1025200070471846FBE70000F8B5204B4479204E71
:1025300043F824201F4A204B06EBC4049B1A22793F
:10254000DB081B0432B143F002001C49FFF738FAE4
:102550000820F8BD02680C88C2F8084590F90450BC
:102560008A7804795201002DD2B219DB14494F192F
:1025700087F8002301226D0904F01F0402FA04F415
:1025800041F82540427906EBC201012446F83200A9
:102590000C7143F003000B49FFF712FA0020D8E753
:1025A000094904F00F040A55ECE700BF882E00200B
:1025B000802E0020E45903005C5A0300545C0300A1
:1025C00000E100E0765C030014ED00E00368012206
:1025D0001A607047036801225A60704773B501F1B1
:1025E0005005AD000068ADB24FF480348C40002639
:1025F000C0F80843C0F84843465101F5A871455951
:10260000019522F07F42019D40F82120C0F844430B
:102610000BB1C0F8044302B070BD00002DE9F74FC4
:102620000D4622F07F4402684FF4803705F15006D2
:102630008F408046B60002EB8500C2F84873B6B200
:10264000C2F80873D2F8041599464FF0000BD0F881
:102650004035C0F8401542F806B05B1A9259009216
:1026600023F07F43012B009A4FEA850A0CD1264BB9
:102670004FF4806043F001039847D8F8003043F8E6
:1026800006B09B590193019BD8F80010D1F804655E
:10269000C1F84473A31B23F07F43012B1CD11A4BB9
:1026A00005F5A875013443F0010341F825404FF4C6
:1026B00080609847D8F80030D3F804359E4209D19D
:1026C000D8F800300020C3F84473C3F8047303B093
:1026D000BDE8F08F0D20FAE78A44C9F1FF13CAF86C
:1026E0004045D1F80405221A013A22F07F4203F551
:1026F0007F439342EED3002AE2D10134CAF8404529
:10270000D1F804359842DAE7905C030003680222AE
:10271000C3F8442309B1C3F80423704700684FF499
:102720008271FFF7F3BE4FF4803303FA01F10368BF
:10273000C3F84813C3F80813704750318900006884
:1027400089B2FFF7E3BE0368D3F8040570470000C1
:1027500090F90430002B09DB5A09012103F01F0313
:1027600001FA03F34032024941F82230704700BFBA
:1027700000E100E0024B034A1B681068184700BFE5
:10278000882E0020802E002010B561B1B2FBF3F43A
:1027900003FB1424A4B244B9C0E90014846082810C
:1027A000C381204610BD0E20FCE70920FAE737B5AB
:1027B00050E8013F9DB2C48925448489A54228BFC1
:1027C0002D1B0489A54202BFBFF32F8F002207E013
:1027D000C5EA030540E80154002CE9D14FF001029D
:1027E0008DF803200193019A0A609DF8031001F00F
:1027F000FF0321B1006810FA82F003B030BD184623
:10280000FBE70A884B889A4209D150E8012FC2EAB7
:10281000024240E80123002BF7D10120704700203D
:10282000704737B550E8023F1FFAA3F5C488A542A8
:1028300002BFBFF32F8F00220DE0C4892544848995
:10284000A54228BF2D1BC3EA054540E80254002CD1
:10285000E8D14FF001028DF803200193019A0A603C
:102860009DF8031001F0FF0321B1006800EB124056
:1028700003B030BD1846FBE70A884B889A4209D15D
:1028800050E8022FC2EA224240E80223002BF7D18F
:10289000012070470020704710B5034653E8000F31
:1028A0000A4643E8002494F0000FF7D110BD10B59C
:1028B000034653E8002F42EA010043E8000494F085
:1028C000000FF6D110BD10B5034653E8000F00EA23
:1028D000010243E8002494F0000FF6D110BD10B5BA
:1028E000034653E8002F02EB010043E8000494F094
:1028F000000FF6D110BD10B5034653E8002FA2EB30
:10290000010043E8000494F0000FF6D110BD01214E
:10291000FFF7CDBF0021FFF7D6BF10B590B1D0E9CA
:10292000012301689B1ADBB20A60013BDBB2FF2B7B
:10293000026802D10020107110BD11684C1C146097
:102940000B70F2E70E20F7E737B5054600240DF1CE
:1029500007008DF80740FFF79FFD2A686B68116834
:1029600099420ED9481E106011F8013CEC68298A82
:1029700001FB0344AB6811791B1ADBB2994238BFE3
:1029800013719DF80700FFF7ABFD204603B030BD83
:1029900037B5054600230DF107000C468DF80730CA
:1029A000FFF77AFD2A681368591C1160E968641AF8
:1029B000298AB4FBF1F41C709DF80700FFF790FD25
:1029C00003B030BD826810B504462AB1436901687E
:1029D000006998470023A36010BD0EB403B50399A6
:1029E00021B104AB01AA019300F076F802B05DF8C2
:1029F00004EB03B070470A2938B504460D4602D1EE
:102A00000D21FFF7F8FFA3682268591CA160D55477
:102A1000D4E901329A4204D32046BDE83840FFF79A
:102A2000D1BF38BD2DE9F84F9846DDE90A43154678
:102A300082460F460A464FF00109AA420FD2C1450D
:102A400038BFC14613F0010B01D16CB90024012637
:102A5000B8F1010F1BD908F1FF386E43F8E709F10F
:102A60000109B2FBF5F2E8E79B070ED5B8F1000FBC
:102A70000CBF30262026A145E9D2013C3146504604
:102A8000FFF7B9FF002CF6D1E0E72026F3E7B7FB0C
:102A9000F6F39D42E1D9DFF83C80B7FBF6F35046F0
:102AA00018F8031006FB1377FFF7A5FF3346AB4278
:102AB000B6FBF5F6F1D2BBF1000F02D00CB1A14587
:102AC00001D3BDE8F88F20215046013CFFF793FF6A
:102AD000F4E700BF965C03002DE9F74F0546174663
:102AE0008846002900F03E8118F8011B49B92B7B6C
:102AF000002B00F03781284603B0BDE8F04FFFF708
:102B000061BF252940F0B780002698F800302D2BB2
:102B1000424608F1010823D0302B24D02B2B25D09E
:102B200000242A2B02F1010123D13B681A1D1B68E6
:102B30003A601C440A4613782E2B26D101324FF0FE
:102B4000000A104610F8011BA1F1300CBCF1090F6E
:102B50001DD80A2303FB0A13A3F1300A0246F0E74B
:102B600046F00106D1E746F00206CEE746F004063D
:102B7000CBE711F8013CA3F130000928DBD80A2289
:102B800002FB0434303C0A46CBE74FF0000A12F84F
:102B9000011B01F0FB0068289046F8D0782909D87D
:102BA0006F290CD8632962D022D8252963D05829EF
:102BB00000F0888098F80030002B95D197E77039A5
:102BC0000829F7D801A353F821F000BF3F2D0300D7
:102BD000B52B0300B52B0300D52C0300B52B030048
:102BE000B32C0300B52B0300B52B0300C52C030049
:102BF000642901D06929DDD13A68D2F80090111D0D
:102C000089EAE9723960A2EBE9724FF0010B092AF7
:102C100035DCD34538BFD3462CB1B9F1000F01DB09
:102C2000720700D5013CB30702D5BAF1000F03D0FB
:102C3000F00701D44CBB0024B9F1000F2DDAC9F123
:102C400000092D212846FFF7D6FE06F00302022ACE
:102C500004D1BAF1000F01D11CBB0024CDE900461C
:102C600053460A2249462846FFF7DCFEA2E73B68A6
:102C70001A1D19783A602846FFF7BDFE9AE70A2325
:102C80000BF1010BB2FBF3F2C1E7A345D4D2202133
:102C90002846013CFFF7AFFECCE77107D5D52B21C5
:102CA000D0E7A345DAD230212846013CFFF7A3FE46
:102CB000D2E73968CDE900460A1D3A6053460A2238
:102CC0000968D0E739680A1D3A60CDE900465346E5
:102CD0001022F5E73B681A1D3A6016F00106D3F89A
:102CE000009024D1B9F1000F03D0484602F039FE1C
:102CF0000646B4421DD809F1FF3919F8011F002911
:102D00003FF458AF2846FFF776FEF6E7284601362F
:102D1000FFF771FE19F806100029F7D1A642BFF49B
:102D200049AF20212846013CFFF765FEF6E7002663
:102D3000F0E720212846013CFFF75DFED9E73B681C
:102D40001A1D3A60302128461C68FFF754FE78218E
:102D50002846FFF750FE00220823CDE90032214625
:102D6000102280E703B0BDE8F08F00BF2DE9F84FD7
:102D7000B0F806A04579D2F800B09DF828900AFB7B
:102D800005F5043D88460BEB0301A94203F1040459
:102D900088BFA5EB030BB4FBFAF607460AFB164403
:102DA000C2F800B04EB9AAEB04055D4528BF5D46E8
:102DB000BBF1000F04D1BDE8F88F3F68013EF1E799
:102DC000043408EB06003C442A46B9F1000F0DD04C
:102DD0002146ABEB050B02F046FDDA452E443F6879
:102DE00055464FF0000428BF5D46E1E70146204606
:102DF000EFE7FFF792BDF8B546790146721E05462A
:102E0000002393422D6803D30024A64202D8F8BDC4
:102E10000133F6E70F682846FFF7BAFD013439465B
:102E2000F3E72DE9F843068ACD1C0746FFF78CFD32
:102E3000043E35440446B5FBF6F5F0B14FF480731B
:102E4000EDB28380C680013D076081464FF00008E7
:102E5000A84512D23846FFF777FD064648B1637998
:102E60000133637108F10108C9F800000760814669
:102E7000EEE72046FFF7BFFF34462046BDE8F88363
:102E800001210430FFF72BBD10B5012104460430A9
:102E9000FFF731FDC0B220B92046BDE81040FFF772
:102EA000AABF10BD1FB503920022009203AAFFF72C
:102EB0005DFF05B05DF804FB1FB50392012200928F
:102EC00003AAFFF753FF05B05DF804FB33DF70473B
:102ED00041DF7047064B10B500241C70054B1C6089
:102EE000BFF35F8F0449054800F093F8204610BDFA
:102EF000952E0020982E0020B05C03008C2E002020
:102F000007B500230DF107008DF80730FFF7C4FA6D
:102F1000F1EE103A23F09F03E1EE103ABFF35F8F1A
:102F20000A4B4022C3F884219DF80700FFF7D8FA26
:102F300002F076FB20B103B05DF804EBFFF7C8BFE9
:102F400020BF40BF20BF03B05DF804FB00E100E0FC
:102F50007047000070B5244D044601212846FFF754
:102F60009BFCBFF35F8F38B9042C0AD01F4B1A7833
:102F70001AB1BFF35F8F286070BD1D4A1470012223
:102F80001A701C4C1A4E6368BBB9FEF749FDFEF778
:102F9000CDFB0028FBD1164B1B78023B012B15D82B
:102FA000BFF34F8F1449154BCA6802F4E062134314
:102FB000CB60BFF34F8F00BFFDE71B6830789847A9
:102FC0000028D6D0204600F02EF8DCE702F028FBDF
:102FD00008B1FFF77BFF4FF080430122C3F80025C3
:102FE000BFF34F8F20BFFDE7982E0020952E0020C5
:102FF000942E00208C2E002000ED00E00400FA0545
:10300000836800225A60C3E904229A60DA601A6079
:1030100070470B684A684360934208BF0023016011
:1030200008BF43607047436843B1026891685268C3
:103030000B449342436004BF00234360704770B564
:10304000446806460D46206818B1B368294698477B
:1030500018B923682B60256070BD2468F3E74368C6
:10306000186808B102681A607047436818687047AA
:103070004368186800B97047884203D102681A6033
:103080000120704703460068F4E713B50446006862
:10309000FFF75AFC019010B9002002B010BD606823
:1030A00001A900F089FD0028F6D1E269A069D36882
:1030B00001990133D360626A00F059FD0120ECE709
:1030C0007FB50B780446042B58D8DFE803F02110B5
:1030D000033D480001238DF804304B6802938B6850
:1030E0000393E3691A68586801A990470EE0C36921
:1030F00093F8263053B9FFF7C8FF38B9E36993F85E
:103100002520002A3AD0012283F8262004B070BD81
:10311000C3698A685E69901B30D01A6902441A61DB
:103120004A6800253244CDE902208DF804506068D9
:103130005D612A4603F1180100F0ADFD0028D0D0F2
:103140002846FEF7BDFFCCE70023CDE9013303930A
:1031500002238DF804300B798DF80830C1E7C3697C
:1031600049681A6958690A44121A1A6100220192C0
:10317000039203228DF804200291B3E7002004B0EB
:10318000BDE87040FEF79CBF836930B5DB681A0B61
:1031900043F30733002B85B004460CDB02F01F011C
:1031A0005B0901228A402033174941F82320BFF3ED
:1031B0004F8FBFF36F8FA3695B68D3F84C05E3694A
:1031C0001A6982420FD200218DF80410D3E9051547
:1031D000821A0D44CDE902520A44C3E9040201A94E
:1031E0001A6858689047A369DB681A0B43F30733E2
:1031F000002B07DB02F01F0101228A405B09024914
:1032000041F8232005B030BD00E100E0F8B50446E8
:10321000FFF774F8E36993F827200546EAB1196AC5
:10322000A3691B4A5B680126DE64D3F84C758803EA
:103230000023890C02F052FA236920FA06F10529CD
:103240001868224638BF0521FFF735F863691A6808
:10325000BA4203D0C3E900751E72F8BD596828460A
:10326000FFF747F86269137A002BF6D0094BE16942
:10327000A0FB0303C00B40EA43400B6A8342ECD23D
:10328000002313722046BDE8F840FFF77DBF00BF62
:1032900040420F0080841E000846FFF775BF000003
:1032A0002DE9F0434D7F072D8DB004460E4600F00A
:1032B0008880006910B1052D00F2E280E16991F883
:1032C0002770002F40F0DE80C1E906774B6033693C
:1032D0000A600F614F61CF600B6281F82670337D09
:1032E0005A1E5342534181F82530A368002B54D015
:1032F000654A10689288ADF80820644A0190525DD2
:103300008DF8062001A9226A184601F061F80146ED
:10331000002855D13269A0680123520901F096F8BE
:1033200000284DD1A3681F6807F1080807F10409B8
:1033300007F5A0752369002B6DD07368019333687E
:10334000A0690293B3680393F3680493C368504A77
:1033500003F5887305930023CDE906330893B38AF8
:10336000ADF82430B3690A93737F8DF82C30337F26
:103370008DF82D3001A9234600F028FA054600BB40
:103380002068FFF7CAFA0546D8B9606800F069FC02
:10339000E369012283F8272013E0E7680FB38DF873
:1033A00006303A4B029404225B5DADF8042001A97B
:1033B000384A8DF80730384601F034FA014620B11A
:1033C000032528460DB0BDE8F08301233269E0688B
:1033D00001F0A2FAE3681F6807F10C0807F1100971
:1033E000A6E7A8B191F8241049B92B4AFEF758FF77
:1033F00005460028E5D1E369012283F824206369AA
:103400000025C3E900551D72A946A8462F4691E73D
:10341000FEF756FED4E7E069083001F0A7F800286F
:10342000CED1E069093001F0A1F80028C8D1A36924
:10343000D968E3693A46187A01F5847101F0EEF82B
:103440000028BDD1B8F1000F12D1E3694A46587A7D
:10345000294601F0E3F80028B2D1A3695968E3696D
:103460004C31587A01F0FAF800283FF466AFA7E72C
:10347000E3694146187A01F0F1F80028E5D09FE7AA
:1034800007259EE708259CE7D45C0300DA5C03006F
:10349000C1300300993203000D32030070B50446B9
:1034A0000068FFF751FAE269D3680133D36005463B
:1034B00008B9FEF705FEA368002B34D01B68012273
:1034C0009A6026697EB9E369187A01F0DBF810B1D9
:1034D0003046FEF7F5FDE369587A01F0D3F810B1F4
:1034E0000020FEF7EDFDE369626A9D61A06900239B
:1034F000294600F007FB10B10020FEF7E1FD256929
:10350000BDB1E3690B4A196A00238803890C02F0F4
:10351000E5F8410805292868224638BF0521BDE89D
:103520007040FEF7C8BEE0680028CAD001F0F0F98C
:10353000C7E770BD40420F00806900F099BA38B506
:10354000C3690446D869656A0244AA42DA611AD19D
:103550000025DD61091A2068FFF71AFAE269D368CD
:10356000013BAB42D36002DA2846FEF7A9FDE369CE
:1035700093F8263033B12046FFF787FDE369002238
:1035800083F8262038BDFDD9BDE838400020FEF77D
:1035900097BD0023435082B043580193019B02B072
:1035A00070477047F8B50546002414272E68305D33
:1035B000132805D801F07EF8305D01F00BF837557F
:1035C0000134092CF2D12C68607A052803D801F067
:1035D000BBF8062363722C68A07A052803D801F093
:1035E000B3F80623A372F8BD73B50546CDE90021F3
:1035F0001E4600F0BBFF80B9DDE90021287801F00C
:103600000DF8044628B92EB12878314601F026F885
:1036100000B10324204602B070BD0424FAE7000084
:10362000694B2DE9F0411C68E068D0F8243186B080
:10363000B3B14FF49271FFF7ACFF0023CDE9033330
:10364000059303238DF80C30E268D2F88034C2F879
:1036500080348DF81030236803A95A6A586B90475C
:10366000E068D0F84C317BB14FF4A671FFF791FFC1
:103670000023CDE90333059301238DF80C30236833
:1036800003A95A6A586B9047E068D0F81031002BB4
:1036900049D04FF48871FFF77CFF6368D3F8406529
:1036A000D3F844752368D3E90A52751BC3E90A6746
:1036B00001D1974237D0186B85422A4628BF02466F
:1036C0009446A5EB02089A69CDE9012CDA6900213C
:1036D000C3E906211A6A8DF8001032B1C3E9072147
:1036E000E168C1F83425C1F838055A6A586B694653
:1036F0009047B8F1000F05D123681B6B9D4212D192
:10370000BE4210D10025042303958DF80C302368A8
:1037100005955A6A586BCDF8108003A99047236825
:10372000DA69C3E90625E068D0F858318BB14FF467
:10373000AC71FFF72EFF02238DF80C302368DA6896
:1037400004921A6905920022DA60586B5A6A03A93A
:103750009047E068D0F82031A3B14FF49071FFF7A3
:1037600018FF2368E0685969D0F84C250A441969A4
:103770005A618A4209D14FF4AC71FFF70AFFE3683E
:103780000122DA6006B0BDE8F081891AB1F5803F08
:1037900011D3198F1144DA68D0F850310A444FF42C
:1037A000A871FFF7F6FE2168E368098FC3F8442586
:1037B000C3F84815E6E7187A1328E3D806B0BDE841
:1037C000F04100F077BF00BF9C2E00202DE9F743A9
:1037D0000D46016891F83C600446002E40F02F81B0
:1037E000C0684B63FF2381F83A30984B4A62C31A92
:1037F00018BF0123964A0E6242F823402A68CE6021
:103800001F2AC1E9066687BF02F01F0391494FF0E6
:10381000A041134601269E4003F5E073C1F80865F8
:10382000032641F8236095F829106B68002908BF2A
:1038300000261F2B8BBF03F01F011946854F4FF049
:10384000A04701F5E071B60047F82160696AC0F849
:10385000241595F8206095F82110012E41EA060103
:10386000C0F86C15C0F80C25C0F8143500F0EC80D9
:1038700040F30736022E4FEA103710D0E368764A3D
:10388000C3F8042395F82820002E4FEA4212FBB219
:10389000D2B20BDA714903F00F03CA541AE070492F
:1038A00000F06CFD0028E9D01127C9E006F1604165
:1038B000760901F56141B60006F1604681F8002302
:1038C00006F56146012203F01F0302FA03F3C6F86E
:1038D00080313360E3680822C3F80025614A002381
:1038E000CDE900236946604A201D00F09BFF0028B7
:1038F00040F0A38026684FF0143333607360337256
:1039000006237372B3726268E1680346083201F5F8
:103910008471301DFFF768FE002840F08B80D4E9E9
:103920000003E268403302F588710530FFF75CFE62
:10393000074600287ED16A69002A6CD0EA69002A0D
:1039400069D06668E1682068134601F5887106F160
:1039500040020630FFF748FE00286BD1266806F1CA
:10396000090096F8058000F0BDFE002862D1012014
:10397000717A00FA08F000F029FF00285AD1707A15
:1039800000F00CFF002855D1D4F80080767A98F822
:10399000069008F10A0000F0A5FE00284AD1012097
:1039A00098F80A1000FA09F000F010FF002841D141
:1039B0006368E2682068696998F80A8044330432D1
:1039C0000230FFF711FE002834D12068274A6969C8
:1039D0004FEAC808F60008F1804303F5F833324493
:1039E0000330FFF701FE28BB204A06F1804606F5AA
:1039F000F8364244AB6953EA02010ED1296929B174
:103A0000E26820683346FFF7EFFD98B9236801228A
:103A100083F83C2014E01646ECE72068E1680130AA
:103A200001F5A67112B99C4613466246FFF7DCFD0C
:103A30000028E3D02046FFF7B5FD032700E0082764
:103A4000384603B0BDE8F0830727F9E700200040BF
:103A50009C2E0020000300501003480014ED00E0ED
:103A60002136030000010306A335030004F00140E2
:103A7000F8B505460068C368002B41D1B2F5803F18
:103A8000C0E90312436129D294B20387E868C0F801
:103A90004415C0F848454FF4A871FFF77AFDE8686F
:103AA0000123B2F5803F836016D3D0F85031002B4C
:103AB000FBD04FF4A871FFF76CFD2B68187A132820
:103AC00001D800F0DFFD2B68EA68198FDB681C4421
:103AD000C2F84445C2F84815002012E002F57F44C0
:103AE0004FF6FF73FE34B4FBF3F4B2FBF4F4A3B26D
:103AF000B2FBF3F603FB162616FA84F4A4B2C4E76D
:103B00001120F8BD73B51E4603680446986958BB7A
:103B10001A6329B19961E368C3F83415C3F83825ED
:103B2000201D019000F0E6FE019800F0F1FE2368F0
:103B3000E06800254FF48871C3E90A55FFF729FDB5
:103B4000E0684FF4A671FFF724FD2368585D132841
:103B500001D800F097FD0135082DF6D116B9E368BC
:103B600001221A60002000E0112002B070BD03683D
:103B700010B5DC6934B9D961C368C3F83415C3F82A
:103B8000382510BD1962FCE7026813685268934239
:103B900091BFD01A80680130801888BFC01A704762
:103BA000036881681A685B688B4234BF0133002365
:103BB000D31A58425841704773B5002304460DF19B
:103BC00007000D468DF80730FEF766FC2046FFF72C
:103BD000E7FF10B1237C002B3BD12368A1685E680E
:103BE0005A688A4234BF013200225A6028B11A68EA
:103BF0008A4234BF013200221A60E2686368511EB3
:103C0000072920D8DFE801F004101F141F1F1F1818
:103C10002A789A552046FFF7B7FF23689A688242B0
:103C200000D29860002415E02A8823F81620F1E7D6
:103C30002A6843F82620EDE7D5E9000103EBC60327
:103C4000C3E90001E6E7294602FB063001F00BFE5E
:103C5000E0E704249DF80700FEF742FC204602B08E
:103C600070BD37B5054600240DF107008DF80740FB
:103C7000FEF712FC2B681C609DF807005C609C60DE
:103C8000FEF72EFC03B030BD036818685B68C31AEA
:103C900058425841704773B5002305460DF107009F
:103CA0000C4616468DF80730FEF7F6FB2846FFF760
:103CB000EBFF002832D12B6819682EB91A68A86862
:103CC000824238BF561C1E60EA686B68501E072887
:103CD0001ED8DFE800F0040E1D121D1D1D165B5CD2
:103CE000237000249DF80700FEF7FAFB204602B07F
:103CF00070BD33F811302380F3E753F8213023608F
:103D0000EFE703EBC103D3E90023C4E90023E8E7AD
:103D100001FB0231204601F0A6FDE2E70524E1E7C0
:103D200038B5074C051E04F1080318BF1C4623686C
:103D30002BB11A6822605B6828469847F7E738BDC0
:103D4000AC2E002020B9054B01225A70FFF7E8BFC6
:103D5000012802D1014A9070F8E77047A42E002094
:103D600020B9034B01225A70FFF7DABF704700BF3A
:103D7000A42E002038B50E4C2378B3B90D486360EB
:103D8000A3602361E36000F075F8054601F048FC8C
:103D900008B900F07BF801232370074BD3F80034F7
:103DA0000BB10123A370284638BD8525F5E700BF78
:103DB000A42E0020453D03000000014037B50D4C06
:103DC00000230DF107008DF80730FEF765FBE3686F
:103DD000013BE360E36833B9074BD3F8005415B9EE
:103DE00000F066F8A5709DF80700FEF779FB03B0B8
:103DF00030BD00BFA42E002000000140012813B5F3
:103E00000CD0032820D038B9134B0122C3F88020EE
:103E1000BFF34F8FBFF36F8F02B010BD0F4C002365
:103E20000DF107008DF80730FEF736FB23780BB94C
:103E3000FFF7A0FFE3689DF807000133E36001236B
:103E4000A370FEF74DFBE7E700F020F802B0BDE8F5
:103E50001040FFF7B3BF00BF00E100E0A42E002038
:103E600000F18040002382B0036003680193019B4E
:103E700002B07047044A137923B901211060918080
:103E80001846704785207047B82E0020074B1A68E7
:103E9000D20704D4C02283F8002301221A604FF015
:103EA00080430122C3F81825704700BF00E100E0FD
:103EB0004FF0804208B50223C2F808334FF48270F5
:103EC000FFF7CEFF0123D360D2F81834DB03FBD415
:103ED00008BD00004FF0804110B5D1F8003163B14A
:103EE0004FF48070FFF7BCFF0D4B58790122C1F8E9
:103EF000082310B95A711B6898474FF08042D2F8D6
:103F0000043163B14FF48270FFF7AAFF0223C2F8B5
:103F10000833034BBDE810401B680120184710BD53
:103F2000B82E002000F1804000F5C040002382B090
:103F3000036003680193019B02B0704703681F2B65
:103F400083BF03F01F03036001484FF0A040704798
:103F50000003005007B5019001A8FFF7EFFF019B98
:103F600000EB8300D0F8003723F44033C0F800376B
:103F7000D0F8003743EA0141C0F8001703B05DF8FC
:103F800004FB0000054B4FF0FF32072843F82020C8
:103F900084BFC01880F85820704700BFC02E002092
:103FA00038B51D4991F86A30A3BB4FF6FF70FF2466
:103FB0005A09012A0CBF02464FF0FF3203F01F05D9
:103FC000EA40D20748BFCA1803F1010348BF82F88C
:103FD0003040302BECD10024E0B20134FFF7D2FFA7
:103FE0000C2CF9D10D4B00224A669A800C4BC02054
:103FF00083F80603402018604FF4BE70FFF792FF6D
:10400000084B4FF00040C3F80403012381F86A30E5
:10401000104638BD0820FCE7C02E0020242F0020C9
:1040200000E100E000600040034B93F86A000038B4
:1040300018BF0120704700BFC02E0020F7B53D4FCC
:104040003B18044693F93030002B71DA8B78C3F3B8
:104050004003002B0BBF082500250C2008208542BB
:1040600002D1042003B0F0BD57F82560013647D1D6
:1040700038196EB247F8252080F8306013B97B19E3
:1040800083F858408B785A071AD4D8073AD501A834
:104090000194FFF753FF019B00EB8300D0F800373A
:1040A00023F00203C0F800372348E20804F0070CAD
:1040B000012303FA0CF310F802C043EA0C03835403
:1040C00088780B7810F0020028D0AD0005F180450B
:1040D00005F5C0452402D5F8102522F44F3222F40C
:1040E0004072C5F810251B04D5F8102504F47C5443
:1040F00003F440331C431443C5F810450020B1E7D6
:104100000135ACE701A84A780194FFF717FF019B3E
:1041100003F5E073920040F82320C5E7083E47FA14
:1041200086F797F8604044EA831387F8603099E790
:10413000082097E7C02E0020242F002073B5244DBF
:104140002E18044696F93020072A1DDD083A45FA54
:1041500082F595F860309B09032B10D1019001A8DE
:10416000FFF7ECFE019BD0F81015D94001F00101DA
:104170000231204602B0BDE87040FFF7EBBE012BD4
:104180000CBF02210321F4E7D3B2072B1DD8930003
:1041900003F1804303F5C043D3F8100540F001005C
:1041A000C3F8100502F1400040B2800080B2FFF772
:1041B000B9FE51B196F9303055F823302BB10123B7
:1041C00003FA02F2034BC3F8042302B070BD00BF30
:1041D000C02E00200060004007B5019001A8FFF745
:1041E000ADFE019BD0F81005D84000F0010003B0EF
:1041F0005DF804FB2DE9FF470024CDE90244584D4A
:104200004FF48072012102F1804303F5C04390B264
:104210001B68012B06D1D5F804330B4202D0FFF7FF
:1042200081FE0C430432B2F5907F4FEA4101EAD19E
:104230004B4BD3F87C31012B11D14FF4BE70FFF7FB
:1042400071FE4FF0A04344F00044D3F820250292C1
:10425000C3F82025D3F820280392C3F82028E3B21E
:10426000D3B1404F00250126344210D0AB0003F1FA
:10427000804303F5C043D3F81005D3F8101557F861
:10428000253023B1C1F30141C0F305209847013522
:10429000082D4FEA4606E7D1002C59DA314D324C51
:1042A000324E4FF00008012716F9013B5A1C3CD052
:1042B000C3F3C20104A801445FFA83F911F8081C92
:1042C00003F03F0203F0070307FA03F319422CD06F
:1042D00001A80192FFF732FE019B03F5E07350F84D
:1042E0002330C3F3014ABAF1020F0CBF03210221AC
:1042F0001046FFF72FFE01A80192FFF71FFE019B5A
:1043000007FA03F3C0F82035AB1893F9303055F8AD
:10431000233053B14FEA9911032904D0BAF1020FA7
:1043200019D1012901D11046984708F10108B8F1C7
:10433000040FB9D14FF0A043D3F820250292C3F85F
:104340002025D4F820350393C4F820351343A7D192
:1043500004B0BDE8F087BAF1030FE6D10229E1E726
:1043600000600040C02E002000030050202F0020DD
:10437000014B1B68184700BF2C2F00200E4B9842A2
:1043800037B50C4602D0002003B030BD00230DF13C
:1043900007008DF80730FEF77FF8084B1D7915B937
:1043A00001221C601A719DF80700FEF799F8002D94
:1043B000E9D01120E8E700BF002000402C2F0020AA
:1043C0000023435082B043580193019B02B07047D1
:1043D000F0B51A4C43791A4D44F8232003EB4303FC
:1043E000EB5C43BB90F904408B7802795B01002CB5
:1043F000DBB21BDB134E371987F800330123640946
:1044000002F01F0203FA02F246F8242003680A8829
:10441000C3F8082543790879C97803EB4303EA1800
:10442000507091700122EA540020F0BD064C02F059
:104430000F02A354EAE70820F7E700BF382F002057
:10444000342F002000E100E014ED00E02DE9F04100
:1044500005464FF4803400681C4F8C40C0F8484338
:10446000C0F8084395F805C00CEB4C063E4422F01A
:104470007F4296F8018001F5A8764FEA4C0E40F88D
:104480002620B8F1000F11D0D0F80485F444674419
:10449000A8EB0206904538BF06F1FF16BA7838BF80
:1044A00006F57F46B24201DD0D200CE03BB15031F4
:1044B000890089B2FFF784FF2B68C3F804432B6897
:1044C0000020C3F84443BDE8F08100BF342F002032
:1044D0002DE9F041224E234FDFF88C8000244FF469
:1044E0008035D7F80433A6F580412B4289B20CD031
:1044F000336853B1C7F848533846C7F80853FFF735
:104500005FFFD8F80030E0B298470134042C4FEA3E
:10451000450506F10406E4D11248D0F80433DA0761
:104520000AD5D0F800313BB14FF48071FFF748FF56
:104530000D4B20461B6898470A48D0F804339B0768
:104540000CD5D0F804314BB14FF48271FFF738FF2E
:10455000054BBDE8F0411B6805201847BDE8F08118
:104560004041024000400240382F00202DE9F74F23
:104570004FF00009154D164F06464FF0040AC84685
:104580005FFA89FB01240DF1070004FA0BF48DF8A2
:104590000780FDF781FF2C4208D03B6814EA030234
:1045A00001BF23433B6086F800B092469DF80700A8
:1045B000FDF796FFBAF1000F03D0A54309F10109F9
:1045C000DED1504603B0BDE8F08F00BFFFFF010011
:1045D0003C2F0020012337B503FA00F5C5F3100383
:1045E000ABB10C4B0024C3F808550DF107008DF852
:1045F0000740FDF751FF084B186820EA05001860D6
:104600009DF80700FDF76CFF204603B030BD072082
:10461000FBE700BF00F001403C2F002010B5A1B126
:104620009AB101238340C3F3100484B10A4C246877
:1046300023420ED0C00000F1804000F5F830C0F8F1
:104640001015C0F81425002010BD0E20FCE707202F
:10465000FAE70820F8E700BF3C2F0020074A0123B3
:104660001268834013421FBF00F51170044B43F8DA
:104670002010002008BF0820704700BF3C2F0020FA
:1046800000F00140012202FA00F3580C400440B946
:104690001BB1064A1268134205D0054AC2F8043518
:1046A0007047072070470820704700BF3C2F00204C
:1046B00000F00140012202FA00F3580C400440B916
:1046C0001BB1064A1268134205D0054AC2F80835E4
:1046D0007047072070470820704700BF3C2F00201C
:1046E00000F001402DE9F74F4FF00009154F064645
:1046F00033254FF0040AC8465FFA89FB01240DF107
:10470000070004FA0BF48DF80780FDF7C5FE2C4274
:1047100008D03B7813EA040201BF23433B7086F8BC
:1047200000B092469DF80700FDF7DAFEBAF1000FDF
:1047300003D0A54309F10109DED1504603B0BDE81D
:10474000F08F00BF402F002073B5134C012303FAF4
:1047500000F5227815F0330F14BF002607262A42F1
:1047600017D0C00000F1804000F5F830436000230E
:104770000DF107008DF80730FDF78EFE23789DF8C8
:10478000070023EA05032370FDF7AAFE304602B0B6
:1047900070BD0826FAE700BF402F0020012303FA6E
:1047A00000F212F0330F08D006490978114206D002
:1047B000054A42F830300020704707207047082033
:1047C000704700BF402F002000F0014001238B40C4
:1047D00013F0330F73B506460C461FD0104A1278FB
:1047E0001A4219D0450C6D04C5B90DF107008DF8BA
:1047F0000750FDF751FEA10001F1804101F5F831AC
:10480000D1F800080643C1F800689DF80700FDF7DD
:1048100067FE284602B070BD0825FAE70725F8E7CD
:10482000402F0020F7B506792F4D0C237343EF1866
:104830003C7A002C55D1EA504B687B60477903687D
:104840002246A446D4B2A7423CD8CA7843F30734E0
:104850005201002CC3F30733D2B23DDB234F07EBE9
:10486000040C8CF800230122640903F01F0302FAF0
:1048700003F347F8243003684A78D3F8040502F0BC
:10488000030220F003000243C3F80425D3F808050F
:104890008A7820F0030002F003020243C3F80825DF
:1048A000D3F810050A7820F00F0102F00F020A4336
:1048B000C3F810250C2303FB065501232B7200209F
:1048C00003B0F0BD940004F5A074013243F804C0B5
:1048D0001C590194019CB5E7054C03F00F03E25409
:1048E000C9E70820ECE700BF442F002000E100E00A
:1048F00014ED00E0036801221A600279034B0C21D9
:1049000001FB023302221A72704700BF442F0020BD
:1049100003680122DA60704737B54FF480340068CD
:104920008C407BB18B0003F5A0730025C550C358A4
:104930000193019BC0F8044301F5A87140F82120C0
:1049400003B030BDC0F80843F6E700002DE9F3419D
:10495000104C114F114E00254FF48038236883B15D
:10496000D7F8043308FA05F21A420AD0002323606C
:104970002368019304F5E040019B80B2D6E9003141
:1049800098470135042D04F10404E7D102B0BDE8D5
:10499000F08100BF4091004000900040442F002073
:1049A000C4DF704738B50C460A780146002301F889
:1049B0000C2BC3604B60FF21417381620E49436140
:1049C0000383C0F81A30C3830362838480F82630DF
:1049D00000F12C0303C983E80300084B0848094988
:1049E000C01AC008000440F00300FCF7EDFF2046A9
:1049F000BDE8384000F094B85C5D0300E459030062
:104A0000145A03000F5D030010B4546812688460E8
:104A100000234260137053705DF8044BFFF7C2BF70
:104A200010B5094B09490446094822781B1ADB08CE
:104A30001B0443F00300FCF7C7FF20780021BDE80A
:104A40001040FFF7ADBF00BF145A0300295D0300FB
:104A5000E459030037B590F82C200B789A420546AC
:104A60000C464CD190F82D30802B13D143784E3B1F
:104A7000022B0FD8C378102B1FD006D8012B09D1D9
:104A8000A368E9782046984704E0122BF8D9503BF8
:104A9000012BF5D962685378012B30D195F82D3070
:104AA000062B17D014D8012B05D0022B27D1137851
:104AB000591E11701BBB52250DE0043014310190BA
:104AC00000F0A4F8019804F1340100F0AAF8D7E747
:104AD000802BEBE753250B4B0B480C49C01AC00841
:104AE000000440F00300FCF76BFF636800225A707B
:104AF000A3682946204603B0BDE83040184703B0FC
:104B000030BD00BFE4590300145A03003B5D0300AD
:104B1000C2DF7047CDDF7047D1DF7047D3DF70470A
:104B200010B504468378827A41780078FFF7F0FF69
:104B3000A8B923796279E1882078FFF7EFFF70B98F
:104B4000E1782078FFF7E6FF48B9A378DB0706D4C1
:104B5000218921B12078BDE81040FFF7DDBF10BDED
:104B6000CCDF70470149FFF7FBBF00BFA82700203B
:104B700008B5002000F0D2F908B1FDF7A1FA012034
:104B800008BD000008B5174B90F82C201B789A42FE
:104B900027D1154B1B7813F0BF0F22D190F82D3081
:104BA000082B09D8EBB1013B072B1AD8DFE803F03B
:104BB000170E191919191210802B12D1072000F0A5
:104BC000ADF970B1BDE80840FDF77ABA0B20F6E701
:104BD0000120F4E7BDE808400020FEF7BBB9002043
:104BE000EDE708BDB0270020502F0020064B1B78B2
:104BF000102B05D013F0BF0F04D1012000F08EB9A7
:104C00000220FBE700207047502F002003784B70F4
:104C100043780B70B0F803304B80B0F805308B80D0
:104C2000704783780B7070470220FDF78BB8000047
:104C30002DE9F04780460D46FDF79EF8032804460F
:104C400010D8012D10D0022D30D05DB91A48FDF7D3
:104C50004AFB1A4B04EB440213449D78184B1B5D2E
:104C6000AB4219D0BDE8F087144E00EB4003F218B8
:104C7000F55C5378470053B1DFF84C900E484A4634
:104C80004FF48041FDF717FB08B989F800802744ED
:104C90003E440B4BB2781A55002DE3D0094B1B68EC
:104CA000002BDFD02846BDE8F047184700EB400452
:104CB000024804446578EFE7782F0020B82F0020E1
:104CC000D12F0020CC2F0020512F0020007802216E
:104CD000FFF7AEBF08B5094B1B7853B10020FCF7B6
:104CE000FFFF0120FCF7FCFFBDE808400320FCF7B4
:104CF000F7BFBDE80840FDF707B800BF522F0020FE
:104D0000F8B57A4C237805461BB100232370FFF7D2
:104D1000E1FF172D00F28780DFE805F00C1717423E
:104D20005364757F878C878C949999999999C3C896
:104D3000D0D8E3E3FFF7CEFF6D48FDF7D4FA6D4B13
:104D4000002204461A702046F8BD0020FCF7A0FFA0
:104D5000F0B10020FCF7C4FF022D0CBF4FF4E1645A
:104D60004FF47A64634B1D7000254FF400464FF4F6
:104D70007A7029464FF4FA620023E4FB060100F042
:104D8000ADFC2A460146BDE8F8405948FDF793BA04
:104D9000FCF792FF022D0CBFC8244FF4C874E1E762
:104DA0000020FCF775FF40B10020FCF799FF4FF49D
:104DB0004874504B03221A70D6E7FCF77DFFC824D5
:104DC000F7E70020FCF764FF38B10020FCF788FF0C
:104DD0004FF47A64474B0422EDE7FCF76DFF4FF484
:104DE000C874F7E70020FCF753FF48B10020FCF738
:104DF00077FF404B05221A7040F6CD410022C2E7F2
:104E0000FCF75AFFF5E70020FCF79CFF394B062220
:104E10001A70002240F26661B5E70020FCF74CFFF3
:104E2000344B07221A7000248DE701202070FCF714
:104E300089FFEEE701202070FCF784FF00224FF489
:104E40000051A0E7FCF76FFF2A4B0C22EAE72A4843
:104E50002A4EFDF748FAD5F1110504461CD0D8B901
:104E6000012D13D0C820454321464FF400474FF48D
:104E70007A704FF4FA620023C5FB070100F02EFCA4
:104E8000224601461C48FDF716FA04460220FCF7AC
:104E900013FF0123337056E70220FCF721FF0023A4
:104EA000F8E7FFF717FF134B1222BBE7FFF712FFDC
:104EB0000020FCF701FF0F4B1322B3E7FFF70AFFB7
:104EC0000120FCF7F9FE0B4B1422ABE7FFF702FFC2
:104ED0000020FCF7F1FE0120FCF7EEFE054B152249
:104EE000A0E7FCF720FF034B1D709CE7C82F0020B4
:104EF000982F0020D02F0020582F0020522F002064
:104F0000044B1B68DB0703D5034B1878FFF7F8BE8B
:104F1000704700BFC42F0020D02F0020044B1B6817
:104F200013F0010301D0FFF7EBBE1846704700BF36
:104F3000C42F002038B51C4B18601C4B10F0020425
:104F4000054619601AD01A4B1A480E221A700F2201
:104F5000DA7010229A7111225A72042140F233320F
:104F6000FDF740F8044648B9FDF794F8044628B91F
:104F70000146114A1148FDF793F90446EB0711D594
:104F80000120FCF70BFF6CB921460D4A0D48FDF7D7
:104F900087F9044630B9BDE838400B4A0B48012177
:104FA000FDF77EB9204638BDC42F0020CC2F00204D
:104FB000B82F0020CC5D0300CD4C0300F05D030052
:104FC000014F0300F45D0300294C0300EC5D030076
:104FD00042DF70477047000008B5064B06481A6A62
:104FE000002101235209FFF731FABDE808400348C8
:104FF000FEF7CAB8443400207C5E0300445E030020
:1050000038B50D460446FDF7A3FF012D02D0102D43
:105010000CD038BD134B14481449C01AC008000402
:10502000BDE8384040F00300FCF7CABC104D627D7B
:105030002B78934212D00B480B4B0E491B1ADB08FE
:105040001B0443F00300FCF7BFFC0B48062204F1ED
:105050001401FEF771FA08B1FDF732F8637D2B7089
:10506000D7E700BFE45903004C5A0300F85D030082
:10507000D52F0020105E0300445E03000B782BB98F
:105080008A68002AFDD14968FEF759BA704708B509
:1050900000F086FA08B1FDF713F800F00BFB08B139
:1050A000FDF70EF80020FFF75DFD18B1BDE80840E0
:1050B000FDF706B808BD000000B589B01822002130
:1050C00002A800F0F9FB14221123CDE90023642388
:1050D00004934FF0EB73069306238DF81D30274B96
:1050E000274A69461846FEF7DBF808B1FCF7E8FFE7
:1050F0002248FEF7D3F94FF480410020FCF7C6FAAE
:1051000008B1FCF7DDFFFCF7FFF9FDF797F808B1F0
:10511000FCF7D6FF1B490320FFF70CFF08B1FCF793
:10512000CFFFFDF7D7FE08B1FCF7CAFFFFF7AFFFCF
:10513000154A16491648FFF767FC08B1FCF7C0FF8F
:105140001348FFF76DFC08B1FCF7BAFFFFF74EFDFF
:1051500008B1FCF7B5FFFFF73BFF0E480E4B0F49B8
:10516000C01AC008000440F00300FCF729FCFCF75B
:10517000DDFA0028FBD1FDF7C3FEF8E7445E03002B
:105180007D500300D54F0300905E0300845E030052
:105190006C3400204C5A0300E45903002C5E0300D9
:1051A0000369C26893429CBF80681B18013B981A30
:1051B00070472DE9F843D0E902940546A9EB0408AD
:1051C0004068904520440F46144404D900F04BFB3E
:1051D000EC60BDE8F8834246A4EB090400F043FB11
:1051E0006868224607EB0801F0E72DE9F843C56837
:1051F0000646894617464FF000083469B368706860
:10520000A54228BFE418013C621B5C1BBC4228BFBE
:105210003C46944228BF144649462844224600F0A2
:1052200022FBB3682544AB4208BF00253F1BA044C6
:10523000A144F560E1D14046BDE8F88310B5114CBA
:10524000114AA2610223C4E90433104BE361A26452
:105250004FF400730E4A0F492362E26400231022C8
:10526000E01DA3626362E362A3656365E365226593
:1052700000F055FB0849204600F051FB2023A371A4
:1052800010BD00BFA8340020985E03003035002018
:1052900020350020A15E0300A55E030070B5164B0B
:1052A000182400FB04451D4404FB00331646DC6A49
:1052B000012C0ED0022C18D0E4B92846FFF770FF5D
:1052C000864204D832462846FFF773FF344620460C
:1052D00070BD2846FFF764FF8642344628BF044667
:1052E00022462846FFF765FFF1E72846BDE87040F3
:1052F000FFF77BBF0024EAE7A8340020FFF79EBF3A
:105300004FF08053D3F83001A0F1080358425841C0
:10531000704700004FF08053D3F83021082A06D19F
:10532000D3F83431032B02D8024AD05C70470020F6
:10533000704700BFAC5E030008B5FFF7E1FF40B166
:105340004FF080430022C3F80C21C3F81021C3F8AA
:105350003825FFF7D5FF002846D04FF08052614B2B
:10536000D2F80414C3F82015D2F80814C3F8241591
:10537000D2F80C14C3F82815D2F81014C3F82C1561
:10538000D2F81414C3F83015D2F81814C3F8341531
:10539000D2F81C14C3F84015D2F82014C3F84415F1
:1053A000D2F82414C3F84815D2F82814C3F84C15C1
:1053B000D2F82C14C3F85015D2F83014C3F8541591
:1053C000D2F83414C3F86015D2F83814C3F8641551
:1053D000D2F83C14C3F86815D2F84014C3F86C1521
:1053E000D2F84424C3F87025FFF794FF18B13E4B60
:1053F0003E4AC3F88C26FFF78DFF18B13C4BFB22C9
:10540000C3F81825FFF786FF70B14FF080414FF0C9
:105410008053D1F8E42ED3F8583222F00F0203F073
:105420000F031343C1F8E43EFFF774FF20B1314B83
:105430004FF40072C3F84026FFF762FF48B14FF007
:105440008043D3F80024D20744BF6FF00102C3F8B1
:105450000024294AD2F8883043F47003C2F8883017
:10546000BFF34F8FBFF36F8F4FF01023D3F800229D
:10547000002A03DBD3F80432002B2EDA1F4B012263
:10548000C3F80425D3F80024002AFBD04FF01022E3
:105490001221C2F80012D3F80024002AFBD04FF0EA
:1054A00010231222C3F80422144BD3F80024002A3C
:1054B000FBD00022C3F80425D3F80024002AFBD037
:1054C000BFF34F8F0C490E4BCA6802F4E0621343DE
:1054D000CB60BFF34F8F00BFFDE70A4B0A4A1A604B
:1054E00008BD00BF00C000400050004048810300DC
:1054F00000F000400090024000ED00E000E00140BC
:105500000400FA05B42700200090D00310DF704794
:1055100013B5044609496846FDF77BFD019808B9B3
:1055200002B010BDD0E900212046904718B168466E
:10553000FDF779FDF2E71120F2E700BFEC5E030012
:1055400013B5044607496846FDF763FD019B0BB997
:1055500002B010BD2046D3E9002190476846FDF710
:1055600062FDF3E7045F03000B4991F816335A0913
:10557000EC231341DB0706D5084B9A683AB94FF480
:1055800080030B60704742F20200FCF799BD1A6875
:1055900042F480021A60704700E100E0742E00209F
:1055A000F7B5194F3C786CBB184E01252046357075
:1055B000FFF7AEFF112822D02046FFF7C1FF144BA2
:1055C0008DF80340186801900DF10300FCF764FFAB
:1055D000104A114901A8FFF799FF0446B0FA80F07C
:1055E000400938709DF80300FCF77AFF3CB90B4B7B
:1055F00034701C70FFF7B8FF2846FFF7A1FF204664
:1056000003B0F0BD0824FAE731370020303700201E
:10561000E85E0300B85E0300DD200300323700209F
:10562000014B1878704700BF3137002007B5084993
:105630006846FDF7EEFC019B13B903B05DF804FB6F
:10564000D3E9002090476846FDF7EDFCF3E700BF83
:10565000F85E0300FFF7EABFC1DF7047FADF70476B
:1056600010B5124B1B788EB0EBB1114C02AA0DF1A4
:1056700035010DA8FFF7F0FF70B921466846FDF728
:10568000C8FC019B002BF1D002A8D3E90021904770
:105690006846FDF7C8FCF4E7052804D00EB0BDE865
:1056A0001040FCF70DBD0EB010BD00BFA4380020A7
:1056B000285F03001FB5074A07CA01AB83E807004C
:1056C0001846FFF7CBFF10B9034B01221A7005B043
:1056D0005DF804FB1C5F0300A438002053EA020CB1
:1056E00061D02DE9F04BB3FA83F51E0007BFB2FA83
:1056F00082F502FA05F403FA05F41646C5F1200511
:105700001EBF22FA05F73C43203556EA044C4FEA07
:10571000144418BF0134A3464FF00009C846904214
:1057200071EB030C39D3094207BFB0FA80F700FAD6
:1057300007F6B1FA81F701FA07F6C7F120071EBF95
:1057400020FA07FC46EA0C062037B6FBFBFC7F1B61
:10575000103F07F01F04C4F120060CFA04F42CFAE1
:1057600006F644BF34460026202FA4BF2646002458
:1057700054EA060C08BF012418EB040849EB06099B
:10578000A4FB027CC01B06FB02CC04FB03CC71EB28
:105790000C01904271EB030CC5D20B460246494600
:1057A0004046BDE8F08BB2FBF3F200007F2805D83D
:1057B000034B185C034B5B5C18407047002070473C
:1057C000405F0300C05F0300A0F16103192B98BF85
:1057D00020387047A0F14103192B98BF2030704743
:1057E0007F2805D8034B185C034B5B5C184070475F
:1057F00000207047405F0300C05F0300A0F1610319
:10580000192B98BF20387047A0F14103192B98BF7E
:10581000203070477F299ABF017001206FF02E0061
:1058200070475AB10A787F2A0AD800B10260002175
:1058300019605960501A18BF012070470020704746
:105840006FF02E007047000008B5034B5B689B6843
:105850001B68984708BD00BFB827002008B509217C
:10586000FFF7F2FF08BD844640EA010313F0030F7F
:1058700018D18446202A0BD32DE9F007B1E8F807A8
:10588000A0E8F807A2F12002202AF7D2BDE8F0072D
:10589000042A07D351F8043B40F8043BA2F1040268
:1058A000042AF7D2002A05D011F8013B00F8013B89
:1058B000013AF9D1604670478446002A2DD010F095
:1058C000030F04D000F8011B013A26D0F7E7C9B254
:1058D00041EA012141EA0141202A12D3A2F120022A
:1058E0002DE9F0030B460C460D460E460F46884642
:1058F0008946A0E8FA03203AFBD2BDE8F003203243
:105900000BD0042A05D340F8041B043A05D0042A1E
:10591000F9D200F8011B013AFBD1604670470246FC
:1059200010F0030F16D111F0030F13D12DE9F00081
:105930004FF001374FF0803351F8044BA4EB0705CB
:1059400025EA04051D4002D142F8044BF4E7A1F119
:105950000401F0BC11F8013B02F8013B002BF9D126
:10596000704700F1010110F0030F11D010F8012B66
:10597000002A23D010F0030F0AD010F8012B002AC0
:105980001CD010F0030F03D010F8012B002A15D003
:105990002DE970004FF001324FF0803350F8044B86
:1059A000A4EB020525EA04051D4000D1F6E7A0F1AD
:1059B000040070BC10F8012B002AFBD1A0EB010001
:0259C00070472E
:1059C40038340020243400200400000004000000C7
:0459D40001000000CE
:0859D800613D03000000000026
:0459E000714B030004
:1059E400F05C030000000000F65C0300000000000F
:1059F400055D030000000000FD5C030000000000E2
:105A0400015D030000000000095D030000000000C8
:105A1400535D030000000303755D030000000303EE
:105A2400855D030000000303645D030000000000C3
:105A3400955D030000000303A65D0300000003035B
:105A4400B75D030000000303355B0300000003039C
:105A5400105C030000000000395C0300000000003B
:105A6400B05E030000000000EA5C030000000000D8
:105A7400E15C030000000000C55C030000000000BE
:105A8400E05E030000000303105F03000000000059
:105A9400A65C030000000000BC5C030000000000E2
:105AA400854B030000000000554A03006C340020BD
:105AB400085B030000000000145B0300982700202B
:085AC400FD3D0300000000009D
:085ACC00615603000000000018
:105AD40010280020D8280020E028002018280020C2
:105AE4001800000018300020203400202434002046
:085AF400203000200001000039
:105AFC00000000000338FDD870470000D5130300E8
:105B0C0041140300D11303007274745F6C6F675FF0
:105B1C006261636B656E64004261636B656E647396
:105B2C0020666C757368656400617070000000001D
:105B3C00002D00207F000000802D00201B5B313BDE
:105B4C0033316D0025734C6F67732064726F707006
:105B5C006564202825642925730D0A001B5B306DB4
:105B6C00002573003C25733E2025733A2000202528
:105B7C0030327800202020007C002563001B5B3134
:105B8C003B33306D001B5B313B33326D001B5B31A3
:105B9C003B33336D001B5B313B33346D001B5B318E
:105BAC003B33356D001B5B313B33366D001B5B317A
:105BBC003B33376D007761726E696E6700696E6694
:105BCC006F00646562756700685B0300895B0300A6
:105BDC00485B0300915B0300995B0300A15B03002E
:105BEC00A95B0300B15B0300B95B0300000000007C
:105BFC00265C0300C15B0300C95B0300CE5B0300A2
:105C0C000D0E0F106170705F627574746F6E000012
:105C1C00A02D0020466174616C206572726F720059
:105C2C0053797374656D207265736574006170705F
:105C3C005F74696D657200000100060000000000D1
:105C4C00EC2D00204921030052544320696E7374DB
:105C5C00616E636520616C726561647920696E693F
:105C6C007469616C697A65642E005254433A2069F8
:105C7C006E697469616C697A65642E0000000000BD
:105C8C00000000000338FDD8704730313233343512
:105C9C00363738394142434445467077725F6D67F9
:105CAC006D740000E0590300E45903000400000087
:105CBC00736F72746C697374006C696255415254E1
:105CCC00455F6173796E6300000006410000FFFFC1
:105CDC000305FF06076C6962554152544500636C1D
:105CEC006F636B00434C4F434B004750494F544537
:105CFC000050525300525443005050490054494DE7
:105D0C00455200414E5420422D5057522063686139
:105D1C006E6E656C20257520696E697400414E5459
:105D2C0020422D505752202575206F70656E00450E
:105D3C006E642063616C6962726174696F6E20704D
:105D4C00726F6365737300616E745F62707772005B
:105D5C00FFFF0000FFFFFFFF616E745F62707772E0
:105D6C005F706167655F313600616E745F6270777A
:105D7C00725F636F6D6D6F6E00616E745F627077D2
:105D8C00725F706167655F3100616E745F6270771E
:105D9C00725F706167655F313700616E745F62704E
:105DAC0077725F706167655F313800616E745F6236
:105DBC007077725F706167655F746F727175650083
:105DCC000B000300314C03000C000300314C0300AA
:105DDC0018000300314C030019000300314C030080
:105DEC00582F0020782F0020982F0020414E545F10
:105DFC00425057525F504147455F315F55504441C7
:105E0C00544544006576656E743A2020202020208D
:105E1C00202020202020202020202020202564004D
:105E2C0053746172742062707772206F7665722081
:105E3C00756172743A000000E85A0300C4590300FB
:105E4C007C5E030000000000000000000000000069
:105E5C006C5E030044340020D94F0300FF000000A7
:105E6C00D82F0020009000400004000000200040CB
:105E7C00004002402400040000000039000BFCEB41
:105E8C00F61F0000A4340020015003005465726D0D
:105E9C00696E616C0052545400534547474552009B
:105EAC0001000000626C655F6E757300333833312E
:105EBC002D353231642D376466392D323464382DEA
:105ECC00656666332D343637622D323235662D6178
:105EDC00303065006E72665F736468000100000705
:105EEC00C45A0300C45A030008000000CC5A030033
:105EFC00D45A030008000000C45A0300CC5A030013
:105F0C00080000006E72665F7364685F616E7400F7
:105F1C00040020003437002070010000A45A030054
:105F2C00B45A03000800000043000000504F5349CE
:105F3C005800000020202020202020202068282825
:105F4C002828202020202020202020202020202035
:105F5C0020202020481010101010101010101010BD
:105F6C00101010108484848484848484848410109D
:105F7C0010101010108181818181810101010101BA
:105F8C0001010101010101010101010101010110E6
:105F9C00101010101082828282828202020202028F
:105FAC0002020202020202020202020202020210B7
:105FBC00101010200007032004170201085710408E
:105FCC0080000000345F0300386003004C61030064
:105FDC0053756E004D6F6E00547565005765640007
:105FEC00546875004672690053617400000000002B
:105FFC004A616E00466562004D617200417072002C
:10600C004D6179004A756E004A756C0041756700E8
:10601C00536570004F6374004E6F760044656300E7
:10602C0000000000414D00504D0000007061030065
:10603C006C6103006C6103006C6103006C61030014
:10604C006C6103006C6103006C6103006C61030004
:10605C006C610300FFFFFFFFFFFFFFFFFFFFFFFF70
:10606C00FFFF0000AC600300DC5F0300E86003008E
:10607C00FC5F03003060030090600300406103008C
:10608C009C600300256D2F25642F257900000000EE
:10609C0025612025622025652025542025590000E6
:1060AC0053756E646179004D6F6E6461790054753F
:1060BC006573646179005765646E6573646179001A
:1060CC005468757273646179004672696461790011
:1060DC005361747572646179000000004A616E75D9
:1060EC00617279004665627275617279004D6172F8
:1060FC00636800417072696C004D6179004A756E7D
:10610C0065004A756C790041756775737400536549
:10611C007074656D626572004F63746F62657200B6
:10612C004E6F76656D62657200446563656D626580
:10613C007200000025483A254D3A25530000000016
:10614C00AD570300C9570300D5570300E1570300AF
:10615C00FD5703000958030015580300235803008A
:06616C00000000002E00FF
:1061740000000000FF0000000010014011000400B6
:10618400B9A521FBBD72C345FF0000000090D003F8
:10619400D05F0300D05F0300D05F0300D05F030033
:0461A400D05F0300C5
:040000033000137541
:00000001FF
